{
  "contractName": "AmitTokenCrowdsale",
  "abi": [
    {
      "inputs": [
        {
          "internalType": "uint256",
          "name": "_preSaleRate",
          "type": "uint256"
        },
        {
          "internalType": "uint256",
          "name": "_preSaleLimit",
          "type": "uint256"
        },
        {
          "internalType": "uint256",
          "name": "_seedSaleRate",
          "type": "uint256"
        },
        {
          "internalType": "uint256",
          "name": "_seedSaleLimit",
          "type": "uint256"
        },
        {
          "internalType": "address payable",
          "name": "_wallet",
          "type": "address"
        },
        {
          "internalType": "contract ERC20",
          "name": "_token",
          "type": "address"
        }
      ],
      "payable": false,
      "stateMutability": "nonpayable",
      "type": "constructor"
    },
    {
      "anonymous": false,
      "inputs": [
        {
          "indexed": true,
          "internalType": "address",
          "name": "previousOwner",
          "type": "address"
        },
        {
          "indexed": true,
          "internalType": "address",
          "name": "newOwner",
          "type": "address"
        }
      ],
      "name": "OwnershipTransferred",
      "type": "event"
    },
    {
      "anonymous": false,
      "inputs": [
        {
          "indexed": true,
          "internalType": "address",
          "name": "purchaser",
          "type": "address"
        },
        {
          "indexed": true,
          "internalType": "address",
          "name": "beneficiary",
          "type": "address"
        },
        {
          "indexed": false,
          "internalType": "uint256",
          "name": "value",
          "type": "uint256"
        },
        {
          "indexed": false,
          "internalType": "uint256",
          "name": "amount",
          "type": "uint256"
        }
      ],
      "name": "TokensPurchased",
      "type": "event"
    },
    {
      "payable": true,
      "stateMutability": "payable",
      "type": "fallback"
    },
    {
      "constant": false,
      "inputs": [
        {
          "internalType": "address",
          "name": "beneficiary",
          "type": "address"
        }
      ],
      "name": "buyTokens",
      "outputs": [],
      "payable": true,
      "stateMutability": "payable",
      "type": "function"
    },
    {
      "constant": true,
      "inputs": [],
      "name": "isOwner",
      "outputs": [
        {
          "internalType": "bool",
          "name": "",
          "type": "bool"
        }
      ],
      "payable": false,
      "stateMutability": "view",
      "type": "function"
    },
    {
      "constant": true,
      "inputs": [],
      "name": "owner",
      "outputs": [
        {
          "internalType": "address",
          "name": "",
          "type": "address"
        }
      ],
      "payable": false,
      "stateMutability": "view",
      "type": "function"
    },
    {
      "constant": true,
      "inputs": [],
      "name": "rate",
      "outputs": [
        {
          "internalType": "uint256",
          "name": "",
          "type": "uint256"
        }
      ],
      "payable": false,
      "stateMutability": "view",
      "type": "function"
    },
    {
      "constant": false,
      "inputs": [],
      "name": "renounceOwnership",
      "outputs": [],
      "payable": false,
      "stateMutability": "nonpayable",
      "type": "function"
    },
    {
      "constant": true,
      "inputs": [],
      "name": "token",
      "outputs": [
        {
          "internalType": "contract IERC20",
          "name": "",
          "type": "address"
        }
      ],
      "payable": false,
      "stateMutability": "view",
      "type": "function"
    },
    {
      "constant": false,
      "inputs": [
        {
          "internalType": "address",
          "name": "newOwner",
          "type": "address"
        }
      ],
      "name": "transferOwnership",
      "outputs": [],
      "payable": false,
      "stateMutability": "nonpayable",
      "type": "function"
    },
    {
      "constant": true,
      "inputs": [],
      "name": "wallet",
      "outputs": [
        {
          "internalType": "address payable",
          "name": "",
          "type": "address"
        }
      ],
      "payable": false,
      "stateMutability": "view",
      "type": "function"
    },
    {
      "constant": true,
      "inputs": [],
      "name": "weiRaised",
      "outputs": [
        {
          "internalType": "uint256",
          "name": "",
          "type": "uint256"
        }
      ],
      "payable": false,
      "stateMutability": "view",
      "type": "function"
    },
    {
      "constant": false,
      "inputs": [],
      "name": "finalize",
      "outputs": [],
      "payable": false,
      "stateMutability": "nonpayable",
      "type": "function"
    },
    {
      "constant": true,
      "inputs": [],
      "name": "isPreSaleClosed",
      "outputs": [
        {
          "internalType": "bool",
          "name": "",
          "type": "bool"
        }
      ],
      "payable": false,
      "stateMutability": "view",
      "type": "function"
    },
    {
      "constant": true,
      "inputs": [],
      "name": "isSeedSaleClosed",
      "outputs": [
        {
          "internalType": "bool",
          "name": "",
          "type": "bool"
        }
      ],
      "payable": false,
      "stateMutability": "view",
      "type": "function"
    }
  ],
  "bytecode": "0x60806040523480156200001157600080fd5b5060405162001a3238038062001a32833981810160405260c08110156200003757600080fd5b8101908080519060200190929190805190602001909291908051906020019092919080519060200190929190805190602001909291908051906020019092919050505085828260016000806101000a81548160ff021916908315150217905550600083116200010e576040517f08c379a00000000000000000000000000000000000000000000000000000000081526004018080602001828103825260148152602001807f43726f776473616c653a2072617465206973203000000000000000000000000081525060200191505060405180910390fd5b600073ffffffffffffffffffffffffffffffffffffffff168273ffffffffffffffffffffffffffffffffffffffff16141562000196576040517f08c379a0000000000000000000000000000000000000000000000000000000008152600401808060200182810382526025815260200180620019de6025913960400191505060405180910390fd5b600073ffffffffffffffffffffffffffffffffffffffff168173ffffffffffffffffffffffffffffffffffffffff1614156200021e576040517f08c379a0000000000000000000000000000000000000000000000000000000008152600401808060200182810382526024815260200180620019936024913960400191505060405180910390fd5b8260028190555081600160006101000a81548173ffffffffffffffffffffffffffffffffffffffff021916908373ffffffffffffffffffffffffffffffffffffffff16021790555080600060016101000a81548173ffffffffffffffffffffffffffffffffffffffff021916908373ffffffffffffffffffffffffffffffffffffffff1602179055505050506000620002bc6200061f60201b60201c565b905080600460006101000a81548173ffffffffffffffffffffffffffffffffffffffff021916908373ffffffffffffffffffffffffffffffffffffffff1602179055508073ffffffffffffffffffffffffffffffffffffffff16600073ffffffffffffffffffffffffffffffffffffffff167f8be0079c531659141344cd1fd0a4f28419497f9722a3daafe3b4186f6b6457e060405160405180910390a3508073ffffffffffffffffffffffffffffffffffffffff166318160ddd6040518163ffffffff1660e01b815260040160206040518083038186803b158015620003a257600080fd5b505afa158015620003b7573d6000803e3d6000fd5b505050506040513d6020811015620003ce57600080fd5b810190808051906020019092919050505085111562000439576040517f08c379a00000000000000000000000000000000000000000000000000000000081526004018080602001828103825260268152602001806200196d6026913960400191505060405180910390fd5b8073ffffffffffffffffffffffffffffffffffffffff166318160ddd6040518163ffffffff1660e01b815260040160206040518083038186803b1580156200048057600080fd5b505afa15801562000495573d6000803e3d6000fd5b505050506040513d6020811015620004ac57600080fd5b810190808051906020019092919050505083111562000517576040517f08c379a0000000000000000000000000000000000000000000000000000000008152600401808060200182810382526027815260200180620019b76027913960400191505060405180910390fd5b8073ffffffffffffffffffffffffffffffffffffffff166318160ddd6040518163ffffffff1660e01b815260040160206040518083038186803b1580156200055e57600080fd5b505afa15801562000573573d6000803e3d6000fd5b505050506040513d60208110156200058a57600080fd5b81019080805190602001909291905050508386011115620005f7576040517f08c379a000000000000000000000000000000000000000000000000000000000815260040180806020018281038252602f81526020018062001a03602f913960400191505060405180910390fd5b8560058190555084600681905550836007819055508260088190555050505050505062000627565b600033905090565b61133680620006376000396000f3fe6080604052600436106100a75760003560e01c80638da5cb5b116100645780638da5cb5b146101c35780638f32d59b1461021a578063b140a41914610249578063ec8ac4d814610278578063f2fde38b146102bc578063fc0c546a1461030d576100a7565b80632c4e722e146100b95780634042b66f146100e45780634bb278f31461010f578063521eb27314610126578063715018a61461017d5780637d019f8714610194575b6100b76100b2610364565b61036c565b005b3480156100c557600080fd5b506100ce6104f7565b6040518082815260200191505060405180910390f35b3480156100f057600080fd5b506100f9610501565b6040518082815260200191505060405180910390f35b34801561011b57600080fd5b5061012461050b565b005b34801561013257600080fd5b5061013b61058f565b604051808273ffffffffffffffffffffffffffffffffffffffff1673ffffffffffffffffffffffffffffffffffffffff16815260200191505060405180910390f35b34801561018957600080fd5b506101926105b9565b005b3480156101a057600080fd5b506101a96106f4565b604051808215151515815260200191505060405180910390f35b3480156101cf57600080fd5b506101d861070b565b604051808273ffffffffffffffffffffffffffffffffffffffff1673ffffffffffffffffffffffffffffffffffffffff16815260200191505060405180910390f35b34801561022657600080fd5b5061022f610735565b604051808215151515815260200191505060405180910390f35b34801561025557600080fd5b5061025e610794565b604051808215151515815260200191505060405180910390f35b6102ba6004803603602081101561028e57600080fd5b81019080803573ffffffffffffffffffffffffffffffffffffffff16906020019092919050505061036c565b005b3480156102c857600080fd5b5061030b600480360360208110156102df57600080fd5b81019080803573ffffffffffffffffffffffffffffffffffffffff1690602001909291905050506107ab565b005b34801561031957600080fd5b50610322610831565b604051808273ffffffffffffffffffffffffffffffffffffffff1673ffffffffffffffffffffffffffffffffffffffff16815260200191505060405180910390f35b600033905090565b6000809054906101000a900460ff166103ed576040517f08c379a000000000000000000000000000000000000000000000000000000000815260040180806020018281038252601f8152602001807f5265656e7472616e637947756172643a207265656e7472616e742063616c6c0081525060200191505060405180910390fd5b60008060006101000a81548160ff0219169083151502179055506000349050610416828261085a565b6000610421826109e4565b905061043882600354610a0290919063ffffffff16565b6003819055506104488382610a8a565b8273ffffffffffffffffffffffffffffffffffffffff16610467610364565b73ffffffffffffffffffffffffffffffffffffffff167f6faf93231a456e552dbc9961f58d9713ee4f2e69d15f1975b050ef0911053a7b8484604051808381526020018281526020019250505060405180910390a36104c68383610a98565b6104ce610afb565b6104d88383610b66565b505060016000806101000a81548160ff02191690831515021790555050565b6000600254905090565b6000600354905090565b610513610735565b610585576040517f08c379a00000000000000000000000000000000000000000000000000000000081526004018080602001828103825260208152602001807f4f776e61626c653a2063616c6c6572206973206e6f7420746865206f776e657281525060200191505060405180910390fd5b61058d610b6a565b565b6000600160009054906101000a900473ffffffffffffffffffffffffffffffffffffffff16905090565b6105c1610735565b610633576040517f08c379a00000000000000000000000000000000000000000000000000000000081526004018080602001828103825260208152602001807f4f776e61626c653a2063616c6c6572206973206e6f7420746865206f776e657281525060200191505060405180910390fd5b600073ffffffffffffffffffffffffffffffffffffffff16600460009054906101000a900473ffffffffffffffffffffffffffffffffffffffff1673ffffffffffffffffffffffffffffffffffffffff167f8be0079c531659141344cd1fd0a4f28419497f9722a3daafe3b4186f6b6457e060405160405180910390a36000600460006101000a81548173ffffffffffffffffffffffffffffffffffffffff021916908373ffffffffffffffffffffffffffffffffffffffff160217905550565b6000600460149054906101000a900460ff16905090565b6000600460009054906101000a900473ffffffffffffffffffffffffffffffffffffffff16905090565b6000600460009054906101000a900473ffffffffffffffffffffffffffffffffffffffff1673ffffffffffffffffffffffffffffffffffffffff16610778610364565b73ffffffffffffffffffffffffffffffffffffffff1614905090565b6000600460159054906101000a900460ff16905090565b6107b3610735565b610825576040517f08c379a00000000000000000000000000000000000000000000000000000000081526004018080602001828103825260208152602001807f4f776e61626c653a2063616c6c6572206973206e6f7420746865206f776e657281525060200191505060405180910390fd5b61082e81610ba2565b50565b60008060019054906101000a900473ffffffffffffffffffffffffffffffffffffffff16905090565b6108648282610ce8565b600460159054906101000a900460ff16156108e7576040517f08c379a00000000000000000000000000000000000000000000000000000000081526004018080602001828103825260178152602001807f536565642073616c6520697320636c6f736564206e6f7700000000000000000081525060200191505060405180910390fd5b6108ef610831565b73ffffffffffffffffffffffffffffffffffffffff166318160ddd6040518163ffffffff1660e01b815260040160206040518083038186803b15801561093457600080fd5b505afa158015610948573d6000803e3d6000fd5b505050506040513d602081101561095e57600080fd5b81019080805190602001909291905050506109898261097b610501565b610a0290919063ffffffff16565b11156109e0576040517f08c379a000000000000000000000000000000000000000000000000000000000815260040180806020018281038252603181526020018061127d6031913960400191505060405180910390fd5b5050565b60006109fb60025483610de990919063ffffffff16565b9050919050565b600080828401905083811015610a80576040517f08c379a000000000000000000000000000000000000000000000000000000000815260040180806020018281038252601b8152602001807f536166654d6174683a206164646974696f6e206f766572666c6f77000000000081525060200191505060405180910390fd5b8091505092915050565b610a948282610e6f565b5050565b610aa28282610ec0565b600554610aad610501565b10610add57610abd600854610ec4565b6001600460146101000a81548160ff021916908315150217905550610af7565b600654610ae8610501565b10610af657610af5610b6a565b5b5b5050565b600160009054906101000a900473ffffffffffffffffffffffffffffffffffffffff1673ffffffffffffffffffffffffffffffffffffffff166108fc349081150290604051600060405180830381858888f19350505050158015610b63573d6000803e3d6000fd5b50565b5050565b6001600460156101000a81548160ff0219169083151502179055506001600460146101000a81548160ff021916908315150217905550565b600073ffffffffffffffffffffffffffffffffffffffff168173ffffffffffffffffffffffffffffffffffffffff161415610c28576040517f08c379a00000000000000000000000000000000000000000000000000000000081526004018080602001828103825260268152602001806112366026913960400191505060405180910390fd5b8073ffffffffffffffffffffffffffffffffffffffff16600460009054906101000a900473ffffffffffffffffffffffffffffffffffffffff1673ffffffffffffffffffffffffffffffffffffffff167f8be0079c531659141344cd1fd0a4f28419497f9722a3daafe3b4186f6b6457e060405160405180910390a380600460006101000a81548173ffffffffffffffffffffffffffffffffffffffff021916908373ffffffffffffffffffffffffffffffffffffffff16021790555050565b600073ffffffffffffffffffffffffffffffffffffffff168273ffffffffffffffffffffffffffffffffffffffff161415610d6e576040517f08c379a000000000000000000000000000000000000000000000000000000000815260040180806020018281038252602a8152602001806112ae602a913960400191505060405180910390fd5b6000811415610de5576040517f08c379a00000000000000000000000000000000000000000000000000000000081526004018080602001828103825260198152602001807f43726f776473616c653a20776569416d6f756e7420697320300000000000000081525060200191505060405180910390fd5b5050565b600080831415610dfc5760009050610e69565b6000828402905082848281610e0d57fe5b0414610e64576040517f08c379a000000000000000000000000000000000000000000000000000000000815260040180806020018281038252602181526020018061125c6021913960400191505060405180910390fd5b809150505b92915050565b610ebc8282600060019054906101000a900473ffffffffffffffffffffffffffffffffffffffff1673ffffffffffffffffffffffffffffffffffffffff16610ece9092919063ffffffff16565b5050565b5050565b8060028190555050565b610f9a838473ffffffffffffffffffffffffffffffffffffffff1663a9059cbb905060e01b8484604051602401808373ffffffffffffffffffffffffffffffffffffffff1673ffffffffffffffffffffffffffffffffffffffff16815260200182815260200192505050604051602081830303815290604052907bffffffffffffffffffffffffffffffffffffffffffffffffffffffff19166020820180517bffffffffffffffffffffffffffffffffffffffffffffffffffffffff8381831617835250505050610f9f565b505050565b610fbe8273ffffffffffffffffffffffffffffffffffffffff166111ea565b611030576040517f08c379a000000000000000000000000000000000000000000000000000000000815260040180806020018281038252601f8152602001807f5361666545524332303a2063616c6c20746f206e6f6e2d636f6e74726163740081525060200191505060405180910390fd5b600060608373ffffffffffffffffffffffffffffffffffffffff16836040518082805190602001908083835b6020831061107f578051825260208201915060208101905060208303925061105c565b6001836020036101000a0380198251168184511680821785525050505050509050019150506000604051808303816000865af19150503d80600081146110e1576040519150601f19603f3d011682016040523d82523d6000602084013e6110e6565b606091505b50915091508161115e576040517f08c379a00000000000000000000000000000000000000000000000000000000081526004018080602001828103825260208152602001807f5361666545524332303a206c6f772d6c6576656c2063616c6c206661696c656481525060200191505060405180910390fd5b6000815111156111e45780806020019051602081101561117d57600080fd5b81019080805190602001909291905050506111e3576040517f08c379a000000000000000000000000000000000000000000000000000000000815260040180806020018281038252602a8152602001806112d8602a913960400191505060405180910390fd5b5b50505050565b60008060007fc5d2460186f7233c927e7db2dcc703c0e500b653ca82273b7bfad8045d85a47060001b9050833f915080821415801561122c57506000801b8214155b9250505091905056fe4f776e61626c653a206e6577206f776e657220697320746865207a65726f2061646472657373536166654d6174683a206d756c7469706c69636174696f6e206f766572666c6f77546f74616c20737570706c792077696c6c2062652065786365656465642e2020557365206c657373657220616d6f756e7443726f776473616c653a2062656e656669636961727920697320746865207a65726f20616464726573735361666545524332303a204552433230206f7065726174696f6e20646964206e6f742073756363656564a265627a7a72315820ad3a01f065d04bcaa200107724c78ef18ae001de174581848fbd496e43d2d80164736f6c6343000510003250726553616c654c696d6974206973206d6f7265207468616e20746f74616c20737570706c7943726f776473616c653a20746f6b656e20697320746865207a65726f20616464726573735365656453616c654c696d6974206973206d6f7265207468616e20746f74616c20737570706c7943726f776473616c653a2077616c6c657420697320746865207a65726f206164647265737350726553616c654c696d69742b5365656453616c654c696d6974206578636565647320746f74616c20737570706c79",
  "source": "// SPDX-License-Identifier: MIT\npragma solidity >=0.4.22 <0.9.0;\n\nimport \"./Crowdsale.sol\";\nimport \"@openzeppelin/contracts/token/ERC20/ERC20.sol\";\nimport \"@openzeppelin/contracts/ownership/Ownable.sol\";\n \n/**\nCreate an ICO Smart Contract, with your custom ERC20 Token with the below details: \nTotal Supply of Token: 100 Million\nInitial Value at $0.01 (Pre-sale Quantity: 30 Million)\n2nd Sale Value at $0.02 (Seed Sale Quantity: 50 Million)\nFinal Sale for Remaining Tokens should be dynamically allocated.\n */\ncontract AmitTokenCrowdsale is Crowdsale, Ownable {\n\n\n\n  bool private preSaleClosed ;//defaults to false\n  bool private seedSaleClosed ;//defaults to false\n  uint256 private preSaleLimit;\n  uint256 private seedSaleLimit;\n  uint256 private preSaleRate;  \n  uint256 private seedSaleRate;\n\n  constructor(\n    uint256 _preSaleRate,\n    uint256 _preSaleLimit,\n    uint256 _seedSaleRate,\n    uint256 _seedSaleLimit,\n    address payable  _wallet,\n    ERC20 _token\n  )\n    Crowdsale(_preSaleRate, _wallet, _token)\n  \n    public\n  {\n       \n    require(_preSaleLimit <= _token.totalSupply(), \"PreSaleLimit is more than total supply\");\n    require(_seedSaleLimit <= _token.totalSupply(), \"SeedSaleLimit is more than total supply\");\n    require(_preSaleLimit+_seedSaleLimit <= _token.totalSupply(), \"PreSaleLimit+SeedSaleLimit exceeds total supply\");\n    preSaleLimit  = _preSaleRate;\n    seedSaleLimit = _preSaleLimit;\n    preSaleRate   = _seedSaleRate;\n    seedSaleRate  = _seedSaleLimit;\n  \n    //TODO\n    //Need to find how to pause the direct token sales..\n    // Pause Token\n    // token().pause();\n \n  }\n\n\n  /**\n  * @dev Extend parent behavior allowing purchase only when seedSaleClosed is false and \n  total supply will not be breached if this weiAmount is accepted. \n  * @param _beneficiary Token purchaser\n  * @param _weiAmount Amount of wei contributed\n  */\n  function _preValidatePurchase(\n    address _beneficiary,\n    uint256 _weiAmount\n  )\n    internal view\n  {\n    super._preValidatePurchase(_beneficiary, _weiAmount);\n    require(!seedSaleClosed, \"Seed sale is closed now\");\n    require(weiRaised().add(_weiAmount) <= token().totalSupply(), \"Total supply will be exceeded.  Use lesser amount\");\n  }\n\n    /**\n     * @dev Extend parent behavior to check if preSaleLimit and seedSaleLimit\n     has been reached and update state variables accordingly.\n     * @param _beneficiary Address performing the token purchase\n     * @param _weiAmount Value in wei involved in the purchase\n     */\n    function _updatePurchasingState(address _beneficiary, uint256 _weiAmount) \n    internal  {\n        super._updatePurchasingState(_beneficiary, _weiAmount);\n        if(weiRaised() >= preSaleLimit)\n        {\n            setRate(seedSaleRate);\n            preSaleClosed = true;\n        }\n        else\n        {\n            if(weiRaised() >= seedSaleLimit)\n            {               \n                finalization();\n            }\n        }\n    }\n\n   \n    /**\n   * @dev enables to close the seedSale\n  */\n  function finalization() internal {\n       \n       seedSaleClosed = true;\n       preSaleClosed = true;\n       //TODO\n      //As we paused the sale of direct tokens, we need to unpause it\n      //so that one can directly interact with the Token contract \n      //to transfer tokens.\n      //token().unpause();\n            \n  }\n\n/**\n     * @dev this will allow us to close the crowd sale prematurely.\n     */\n  function finalize() external onlyOwner\n  {\n      finalization();\n  }\n\n      /**\n     * @return preSaleClosed\n     */\n    function isPreSaleClosed() public view returns (bool) {\n        return preSaleClosed;\n    }\n\n      /**\n     * @return seedSaleClosed\n     */\n    function isSeedSaleClosed() public view returns (bool) {\n        return seedSaleClosed;\n    }\n}",
  "sourcePath": "/home/trainer/mycode/AmitTokenSale/contracts/AmitTokenCrowdsale.sol",
  "compiler": {
    "name": "solc",
    "version": "0.5.16+commit.9c3226ce.Emscripten.clang"
  },
  "schemaVersion": "3.4.4",
  "updatedAt": "2022-01-16T15:48:57.889Z",
  "devdoc": {
    "methods": {
      "buyTokens(address)": {
        "details": "low level token purchase ***DO NOT OVERRIDE*** This function has a non-reentrancy guard, so it shouldn't be called by another `nonReentrant` function.",
        "params": {
          "beneficiary": "Recipient of the token purchase"
        }
      },
      "finalize()": {
        "details": "this will allow us to close the crowd sale prematurely."
      },
      "isOwner()": {
        "details": "Returns true if the caller is the current owner."
      },
      "isPreSaleClosed()": {
        "return": "preSaleClosed"
      },
      "isSeedSaleClosed()": {
        "return": "seedSaleClosed"
      },
      "owner()": {
        "details": "Returns the address of the current owner."
      },
      "rate()": {
        "return": "the number of token units a buyer gets per wei."
      },
      "renounceOwnership()": {
        "details": "Leaves the contract without owner. It will not be possible to call `onlyOwner` functions anymore. Can only be called by the current owner.     * NOTE: Renouncing ownership will leave the contract without an owner, thereby removing any functionality that is only available to the owner."
      },
      "token()": {
        "return": "the token being sold."
      },
      "transferOwnership(address)": {
        "details": "Transfers ownership of the contract to a new account (`newOwner`). Can only be called by the current owner."
      },
      "wallet()": {
        "return": "the address where funds are collected."
      },
      "weiRaised()": {
        "return": "the amount of wei raised."
      }
    }
  },
  "userdoc": {
    "methods": {},
    "notice": "Create an ICO Smart Contract, with your custom ERC20 Token with the below details:  Total Supply of Token: 100 Million Initial Value at $0.01 (Pre-sale Quantity: 30 Million) 2nd Sale Value at $0.02 (Seed Sale Quantity: 50 Million) Final Sale for Remaining Tokens should be dynamically allocated."
  }
}